:020000020000FC
:100000000C94390148D118951091BC0017FFFCCF12
:10001000089514EA1093BC00F7DF08950093BB0025
:1000200014E81093BC00F0DF08950093BB0014E8BF
:100030001093BC00E9DF089514E91093BC00089503
:1000400014681093BC00E0DF0091BB00089508E441
:100050000093B80000270093B900449A459A11D044
:10006000FF2709D0062D0F77E0DFF7E004D000E985
:10007000DCDFE2DF0895CDDF00EDD0DF0F2FD5DF2D
:100080000895FF27F8DFC5DF01EDC8DF10E4D8DFF2
:10009000602ED6DF702E1127D3DF802ECDDF08959E
:1000A000F4E0E9DFB6DF01EDB9DF10E4C9DF602E6F
:1000B000C7DF702E1127C4DF802EBEDF0895FF2713
:1000C000DADFA0680A2FB1DF0B2FAFDF0C2FADDF17
:1000D000B3DF0895F4E0CFDF0A2FA7DF0B2FA5DFF2
:1000E0000C2FA3DFA9DF0895F8E0C5DF92DF01ED53
:1000F00095DF10E4A5DF902EA3DFA02E1127A0DF4F
:10010000B02E9ADF0895F8E0B6DF0A2F8EDF0B2FAE
:100110008CDF0C2F8ADF90DF0895862F9927939527
:10012000871B08F0FCCF870F9A950895852F962F8F
:10013000AA27A395871B9040992311F4871708F0ED
:10014000F8CF089574E6E9DF992E682F7AE0E5DFAD
:10015000892E782E089530E3030F0895B2E052E01F
:1001600005D00895BAEF53E001D00895FF24F0922E
:100170008500F0928400B19AD0938900C0938800E2
:1001800040E4409380005093810046B341FFFDCF8F
:10019000BA9561F7F0928100089504B1076004B93F
:1001A00007B10F6007B90AB1006F0AB9002705B996
:1001B00008B90BB9FF27C4E1D0E0D4DF08E30CD0C5
:1001C0000CE00AD0089501E007D00895F1E00AD0CC
:1001D000C8E2D0E0C3DF0895FF2704D0C0E4D6E032
:1001E000BDDF0895E5B1E87FEF2BE5B92BB12F70A6
:1001F00038B1307F102F107F122B0F70032B08B9EE
:100200001BB9E460E5B9EB7FE5B9089500E600931A
:100210007C0007E800937A00089501E804BD04E03B
:1002200005BD089501EA0093B00006E00093B10017
:10023000089502E404BD03E005BD089502E50093BE
:10024000B00004E00093B100089520917C00207F6D
:10025000212B20937C0000917A00006400937A00A7
:1002600000917A0006FDFCCFB090790008950C93C0
:1002700008955A9A00270AB990DF7894E89A0AE01C
:1002800000936900DBDF08E50093B300E0DECAEF0E
:10029000DD2768DFFFCF97DF02E09EDFF2DE24DF9D
:1002A0000CB301FF09C0E19A092D009500FBAA27B4
:1002B000A0F9BA2DCB2D27DF992061F0EE2071F443
:1002C000662099F48B1489F47A1479F40FEFE02EF8
:1002D000239A04C00027E02E239807C014B1012FF1
:1002E000177F00950870102B14B9D3B0D4FE4DC001
:1002F0001D9B28C06A2D7A2D6F70707F72958B2D93
:100300009B2D8F70907F929505E0600F6A3088F08A
:1003100066277395763068F077278395843028F0C8
:10032000923018F08827992704C08A3010F0882767
:1003300093957295BB27B62BB72B9295CC27C82BDC
:10034000C92BE1DED1DE0B2D007F029504DF3EDFFD
:100350000B2D0F7000DF3ADF0AE338DF0A2D007F34
:100360000295F9DE33DF0A2D0F70F5DE2FDF0DEC7D
:1003700033DF0FE42BDF992019F00EE627DF089515
:1003800006E624DF06E622DF08951D9B28C0672DC0
:10039000772D6F70707F7295882D982D8F70907F5C
:1003A000929563956A3088F066277395763068F089
:1003B00077278395843028F0923018F08827992782
:1003C00004C08A3010F0882793957295BB27B62B0E
:1003D000B72B9295CC27C82BC92BA62D70DE51DEEA
:1003E000082D007F0295B7DEF1DE082D0F70B3DE19
:1003F000EDDE0AE3EBDE072D007F0295ACDEE6DEE4
:10040000072D0F70A8DEE2DE0AE3E0DE062D007F96
:100410000295A1DEDBDE062D0F709DDED7DE08EC37
:10042000DBDE3EDE072D007F029595DECFDE072D59
:100430000F7091DECBDE0FE2C9DE062D007F029544
:100440008ADEC4DE062D0F7086DEC0DE0FE2BEDE61
:10045000082D007F02957FDEB9DE082D0F707BDE50
:04046000B5DE089568
:00000001FF
